{
  "contractName": "EnergyMarket",
  "abi": [
    {
      "inputs": [
        {
          "internalType": "uint256",
          "name": "initialSupply",
          "type": "uint256"
        }
      ],
      "stateMutability": "nonpayable",
      "type": "constructor"
    },
    {
      "anonymous": false,
      "inputs": [
        {
          "indexed": false,
          "internalType": "uint256",
          "name": "offerId",
          "type": "uint256"
        },
        {
          "indexed": false,
          "internalType": "uint256",
          "name": "energyAmount",
          "type": "uint256"
        },
        {
          "indexed": false,
          "internalType": "uint256",
          "name": "pricePerUnit",
          "type": "uint256"
        },
        {
          "indexed": false,
          "internalType": "address",
          "name": "producer",
          "type": "address"
        }
      ],
      "name": "EnergyOffered",
      "type": "event"
    },
    {
      "anonymous": false,
      "inputs": [
        {
          "indexed": false,
          "internalType": "uint256",
          "name": "offerId",
          "type": "uint256"
        },
        {
          "indexed": false,
          "internalType": "uint256",
          "name": "energyAmount",
          "type": "uint256"
        },
        {
          "indexed": false,
          "internalType": "uint256",
          "name": "pricePerUnit",
          "type": "uint256"
        },
        {
          "indexed": false,
          "internalType": "address",
          "name": "consumer",
          "type": "address"
        }
      ],
      "name": "EnergyPurchased",
      "type": "event"
    },
    {
      "anonymous": false,
      "inputs": [
        {
          "indexed": false,
          "internalType": "address",
          "name": "buyer",
          "type": "address"
        },
        {
          "indexed": false,
          "internalType": "uint256",
          "name": "amount",
          "type": "uint256"
        },
        {
          "indexed": false,
          "internalType": "uint256",
          "name": "ethPaid",
          "type": "uint256"
        }
      ],
      "name": "TokensPurchased",
      "type": "event"
    },
    {
      "anonymous": false,
      "inputs": [
        {
          "indexed": false,
          "internalType": "address",
          "name": "seller",
          "type": "address"
        },
        {
          "indexed": false,
          "internalType": "uint256",
          "name": "amount",
          "type": "uint256"
        },
        {
          "indexed": false,
          "internalType": "uint256",
          "name": "ethReceived",
          "type": "uint256"
        }
      ],
      "name": "TokensSold",
      "type": "event"
    },
    {
      "anonymous": false,
      "inputs": [
        {
          "indexed": false,
          "internalType": "address",
          "name": "user",
          "type": "address"
        },
        {
          "indexed": false,
          "internalType": "string",
          "name": "role",
          "type": "string"
        },
        {
          "indexed": false,
          "internalType": "bytes32",
          "name": "ssnHash",
          "type": "bytes32"
        }
      ],
      "name": "UserRegistered",
      "type": "event"
    },
    {
      "inputs": [
        {
          "internalType": "address",
          "name": "",
          "type": "address"
        }
      ],
      "name": "consumerEnergyBalance",
      "outputs": [
        {
          "internalType": "uint256",
          "name": "",
          "type": "uint256"
        }
      ],
      "stateMutability": "view",
      "type": "function"
    },
    {
      "inputs": [
        {
          "internalType": "uint256",
          "name": "",
          "type": "uint256"
        }
      ],
      "name": "energyOffers",
      "outputs": [
        {
          "internalType": "uint256",
          "name": "energyAmount",
          "type": "uint256"
        },
        {
          "internalType": "uint256",
          "name": "pricePerUnit",
          "type": "uint256"
        },
        {
          "internalType": "address",
          "name": "producer",
          "type": "address"
        }
      ],
      "stateMutability": "view",
      "type": "function"
    },
    {
      "inputs": [],
      "name": "energyToken",
      "outputs": [
        {
          "internalType": "contract EnergyToken",
          "name": "",
          "type": "address"
        }
      ],
      "stateMutability": "view",
      "type": "function"
    },
    {
      "inputs": [
        {
          "internalType": "address",
          "name": "",
          "type": "address"
        }
      ],
      "name": "roles",
      "outputs": [
        {
          "internalType": "string",
          "name": "",
          "type": "string"
        }
      ],
      "stateMutability": "view",
      "type": "function"
    },
    {
      "inputs": [],
      "name": "tokenPrice",
      "outputs": [
        {
          "internalType": "uint256",
          "name": "",
          "type": "uint256"
        }
      ],
      "stateMutability": "view",
      "type": "function"
    },
    {
      "inputs": [
        {
          "internalType": "address",
          "name": "",
          "type": "address"
        }
      ],
      "name": "userHashes",
      "outputs": [
        {
          "internalType": "bytes32",
          "name": "",
          "type": "bytes32"
        }
      ],
      "stateMutability": "view",
      "type": "function"
    },
    {
      "inputs": [
        {
          "internalType": "string",
          "name": "ssn",
          "type": "string"
        },
        {
          "internalType": "string",
          "name": "role",
          "type": "string"
        }
      ],
      "name": "registerUser",
      "outputs": [],
      "stateMutability": "nonpayable",
      "type": "function"
    },
    {
      "inputs": [],
      "name": "buyTokens",
      "outputs": [],
      "stateMutability": "payable",
      "type": "function"
    },
    {
      "inputs": [
        {
          "internalType": "uint256",
          "name": "tokenAmount",
          "type": "uint256"
        }
      ],
      "name": "sellTokens",
      "outputs": [],
      "stateMutability": "nonpayable",
      "type": "function"
    },
    {
      "inputs": [
        {
          "internalType": "uint256",
          "name": "energyAmount",
          "type": "uint256"
        },
        {
          "internalType": "uint256",
          "name": "pricePerUnit",
          "type": "uint256"
        }
      ],
      "name": "listEnergyForSale",
      "outputs": [],
      "stateMutability": "nonpayable",
      "type": "function"
    },
    {
      "inputs": [
        {
          "internalType": "uint256",
          "name": "offerId",
          "type": "uint256"
        },
        {
          "internalType": "uint256",
          "name": "energyAmount",
          "type": "uint256"
        }
      ],
      "name": "buyEnergy",
      "outputs": [],
      "stateMutability": "nonpayable",
      "type": "function"
    }
  ],
  "bytecode": "0x6080604052670de0b6b3a76400006001553480156200001c575f80fd5b506040516200438a3803806200438a833981810160405281019062000042919062000107565b806040516200005190620000bd565b6200005d919062000148565b604051809103905ff08015801562000077573d5f803e3d5ffd5b505f806101000a81548173ffffffffffffffffffffffffffffffffffffffff021916908373ffffffffffffffffffffffffffffffffffffffff1602179055505062000163565b6118a88062002ae283390190565b5f80fd5b5f819050919050565b620000e381620000cf565b8114620000ee575f80fd5b50565b5f815190506200010181620000d8565b92915050565b5f602082840312156200011f576200011e620000cb565b5b5f6200012e84828501620000f1565b91505092915050565b6200014281620000cf565b82525050565b5f6020820190506200015d5f83018462000137565b92915050565b61297180620001715f395ff3fe60806040526004361061009b575f3560e01c8063993746421161006357806399374642146101815780639aa933c0146101bd578063c3cfe4a1146101f9578063cdb6d52d14610235578063d0febe4c1461025d578063d599b287146102675761009b565b80631d2e4afd1461009f5780633fa2f801146100c75780634ec7fb81146101055780636c11bcd31461012f5780637ff9b59614610157575b5f80fd5b3480156100aa575f80fd5b506100c560048036038101906100c09190611752565b61028f565b005b3480156100d2575f80fd5b506100ed60048036038101906100e891906117fb565b61051f565b6040516100fc93929190611874565b60405180910390f35b348015610110575f80fd5b50610119610573565b6040516101269190611904565b60405180910390f35b34801561013a575f80fd5b50610155600480360381019061015091906117fb565b610596565b005b348015610162575f80fd5b5061016b61096e565b604051610178919061191d565b60405180910390f35b34801561018c575f80fd5b506101a760048036038101906101a29190611960565b610974565b6040516101b49190611a05565b60405180910390f35b3480156101c8575f80fd5b506101e360048036038101906101de9190611960565b610a0f565b6040516101f0919061191d565b60405180910390f35b348015610204575f80fd5b5061021f600480360381019061021a9190611960565b610a24565b60405161022c9190611a3d565b60405180910390f35b348015610240575f80fd5b5061025b60048036038101906102569190611a56565b610a39565b005b610265610f9e565b005b348015610272575f80fd5b5061028d60048036038101906102889190611a56565b611241565b005b5f801b60045f3373ffffffffffffffffffffffffffffffffffffffff1673ffffffffffffffffffffffffffffffffffffffff1681526020019081526020015f205414610310576040517f08c379a000000000000000000000000000000000000000000000000000000000815260040161030790611ade565b60405180910390fd5b60405160200161031f90611b50565b60405160208183030381529060405280519060200120816040516020016103469190611b94565b6040516020818303038152906040528051906020012014806103b1575060405160200161037290611bf4565b60405160208183030381529060405280519060200120816040516020016103999190611b94565b60405160208183030381529060405280519060200120145b6103f0576040517f08c379a00000000000000000000000000000000000000000000000000000000081526004016103e790611c52565b60405180910390fd5b816040516020016104019190611b94565b6040516020818303038152906040528051906020012060045f3373ffffffffffffffffffffffffffffffffffffffff1673ffffffffffffffffffffffffffffffffffffffff1681526020019081526020015f20819055508060055f3373ffffffffffffffffffffffffffffffffffffffff1673ffffffffffffffffffffffffffffffffffffffff1681526020019081526020015f2090816104a29190611e61565b507fccd232d370002532b298c205b90d1c287a6f1913b8c7113733b47a81fece11a0338260045f3373ffffffffffffffffffffffffffffffffffffffff1673ffffffffffffffffffffffffffffffffffffffff1681526020019081526020015f205460405161051393929190611f30565b60405180910390a15050565b6002818154811061052e575f80fd5b905f5260205f2090600302015f91509050805f015490806001015490806002015f9054906101000a900473ffffffffffffffffffffffffffffffffffffffff16905083565b5f8054906101000a900473ffffffffffffffffffffffffffffffffffffffff1681565b5f801b60045f3373ffffffffffffffffffffffffffffffffffffffff1673ffffffffffffffffffffffffffffffffffffffff1681526020019081526020015f205403610617576040517f08c379a000000000000000000000000000000000000000000000000000000000815260040161060e90611fb6565b60405180910390fd5b60405160200161062690611b50565b6040516020818303038152906040528051906020012060055f3373ffffffffffffffffffffffffffffffffffffffff1673ffffffffffffffffffffffffffffffffffffffff1681526020019081526020015f206040516020016106899190612054565b60405160208183030381529060405280519060200120146106df576040517f08c379a00000000000000000000000000000000000000000000000000000000081526004016106d6906120b4565b60405180910390fd5b5f8111610721576040517f08c379a000000000000000000000000000000000000000000000000000000000815260040161071890612142565b60405180910390fd5b805f8054906101000a900473ffffffffffffffffffffffffffffffffffffffff1673ffffffffffffffffffffffffffffffffffffffff166370a08231336040518263ffffffff1660e01b815260040161077a9190612160565b602060405180830381865afa158015610795573d5f803e3d5ffd5b505050506040513d601f19601f820116820180604052508101906107b9919061218d565b10156107fa576040517f08c379a00000000000000000000000000000000000000000000000000000000081526004016107f190612228565b60405180910390fd5b5f600154826108099190612273565b90508047101561084e576040517f08c379a000000000000000000000000000000000000000000000000000000000815260040161084590612324565b60405180910390fd5b5f8054906101000a900473ffffffffffffffffffffffffffffffffffffffff1673ffffffffffffffffffffffffffffffffffffffff166323b872dd3330856040518463ffffffff1660e01b81526004016108aa93929190612342565b6020604051808303815f875af11580156108c6573d5f803e3d5ffd5b505050506040513d601f19601f820116820180604052508101906108ea91906123ac565b503373ffffffffffffffffffffffffffffffffffffffff166108fc8290811502906040515f60405180830381858888f1935050505015801561092e573d5f803e3d5ffd5b507f2dcf9433d75db0d8b1c172641f85e319ffe4ad22e108a95d1847ceb906e5195d338383604051610962939291906123d7565b60405180910390a15050565b60015481565b6005602052805f5260405f205f91509050805461099090611c9d565b80601f01602080910402602001604051908101604052809291908181526020018280546109bc90611c9d565b8015610a075780601f106109de57610100808354040283529160200191610a07565b820191905f5260205f20905b8154815290600101906020018083116109ea57829003601f168201915b505050505081565b6003602052805f5260405f205f915090505481565b6004602052805f5260405f205f915090505481565b5f801b60045f3373ffffffffffffffffffffffffffffffffffffffff1673ffffffffffffffffffffffffffffffffffffffff1681526020019081526020015f205403610aba576040517f08c379a0000000000000000000000000000000000000000000000000000000008152600401610ab190611fb6565b60405180910390fd5b604051602001610ac990611b50565b6040516020818303038152906040528051906020012060055f3373ffffffffffffffffffffffffffffffffffffffff1673ffffffffffffffffffffffffffffffffffffffff1681526020019081526020015f20604051602001610b2c9190612054565b6040516020818303038152906040528051906020012014610b82576040517f08c379a0000000000000000000000000000000000000000000000000000000008152600401610b7990612456565b60405180910390fd5b6002805490508210610bc9576040517f08c379a0000000000000000000000000000000000000000000000000000000008152600401610bc0906124be565b60405180910390fd5b5f60028381548110610bde57610bdd6124dc565b5b905f5260205f2090600302019050805f01548214610c31576040517f08c379a0000000000000000000000000000000000000000000000000000000008152600401610c2890612553565b60405180910390fd5b5f816001015483610c429190612273565b9050805f8054906101000a900473ffffffffffffffffffffffffffffffffffffffff1673ffffffffffffffffffffffffffffffffffffffff166370a08231336040518263ffffffff1660e01b8152600401610c9d9190612160565b602060405180830381865afa158015610cb8573d5f803e3d5ffd5b505050506040513d601f19601f82011682018060405250810190610cdc919061218d565b1015610d1d576040517f08c379a0000000000000000000000000000000000000000000000000000000008152600401610d14906125bb565b60405180910390fd5b5f8054906101000a900473ffffffffffffffffffffffffffffffffffffffff1673ffffffffffffffffffffffffffffffffffffffff166323b872dd33846002015f9054906101000a900473ffffffffffffffffffffffffffffffffffffffff16846040518463ffffffff1660e01b8152600401610d9c93929190612342565b6020604051808303815f875af1158015610db8573d5f803e3d5ffd5b505050506040513d601f19601f82011682018060405250810190610ddc91906123ac565b508260035f3373ffffffffffffffffffffffffffffffffffffffff1673ffffffffffffffffffffffffffffffffffffffff1681526020019081526020015f205f828254610e2991906125d9565b9250508190555060026001600280549050610e44919061260c565b81548110610e5557610e546124dc565b5b905f5260205f20906003020160028581548110610e7557610e746124dc565b5b905f5260205f2090600302015f820154815f015560018201548160010155600282015f9054906101000a900473ffffffffffffffffffffffffffffffffffffffff16816002015f6101000a81548173ffffffffffffffffffffffffffffffffffffffff021916908373ffffffffffffffffffffffffffffffffffffffff1602179055509050506002805480610f0d57610f0c61263f565b5b600190038181905f5260205f2090600302015f8082015f9055600182015f9055600282015f6101000a81549073ffffffffffffffffffffffffffffffffffffffff0219169055505090557f50fd27a3511a9621535d228a79e8fcaab0bb40423bcc6947c9b07c741809293f8484846001015433604051610f90949392919061266c565b60405180910390a150505050565b5f801b60045f3373ffffffffffffffffffffffffffffffffffffffff1673ffffffffffffffffffffffffffffffffffffffff1681526020019081526020015f20540361101f576040517f08c379a000000000000000000000000000000000000000000000000000000000815260040161101690611fb6565b60405180910390fd5b60405160200161102e90611b50565b6040516020818303038152906040528051906020012060055f3373ffffffffffffffffffffffffffffffffffffffff1673ffffffffffffffffffffffffffffffffffffffff1681526020019081526020015f206040516020016110919190612054565b60405160208183030381529060405280519060200120146110e7576040517f08c379a00000000000000000000000000000000000000000000000000000000081526004016110de906126f9565b60405180910390fd5b5f3411611129576040517f08c379a000000000000000000000000000000000000000000000000000000000815260040161112090612761565b60405180910390fd5b5f6001543461113891906127ac565b90505f811161117c576040517f08c379a000000000000000000000000000000000000000000000000000000000815260040161117390612826565b60405180910390fd5b5f8054906101000a900473ffffffffffffffffffffffffffffffffffffffff1673ffffffffffffffffffffffffffffffffffffffff166340c10f1933836040518363ffffffff1660e01b81526004016111d6929190612844565b5f604051808303815f87803b1580156111ed575f80fd5b505af11580156111ff573d5f803e3d5ffd5b505050507f8fafebcaf9d154343dad25669bfa277f4fbacd7ac6b0c4fed522580e040a0f33338234604051611236939291906123d7565b60405180910390a150565b5f801b60045f3373ffffffffffffffffffffffffffffffffffffffff1673ffffffffffffffffffffffffffffffffffffffff1681526020019081526020015f2054036112c2576040517f08c379a00000000000000000000000000000000000000000000000000000000081526004016112b990611fb6565b60405180910390fd5b6040516020016112d190611bf4565b6040516020818303038152906040528051906020012060055f3373ffffffffffffffffffffffffffffffffffffffff1673ffffffffffffffffffffffffffffffffffffffff1681526020019081526020015f206040516020016113349190612054565b604051602081830303815290604052805190602001201461138a576040517f08c379a0000000000000000000000000000000000000000000000000000000008152600401611381906128b5565b60405180910390fd5b815f8054906101000a900473ffffffffffffffffffffffffffffffffffffffff1673ffffffffffffffffffffffffffffffffffffffff166370a08231336040518263ffffffff1660e01b81526004016113e39190612160565b602060405180830381865afa1580156113fe573d5f803e3d5ffd5b505050506040513d601f19601f82011682018060405250810190611422919061218d565b1015611463576040517f08c379a000000000000000000000000000000000000000000000000000000000815260040161145a9061291d565b60405180910390fd5b5f8054906101000a900473ffffffffffffffffffffffffffffffffffffffff1673ffffffffffffffffffffffffffffffffffffffff166323b872dd3330856040518463ffffffff1660e01b81526004016114bf93929190612342565b6020604051808303815f875af11580156114db573d5f803e3d5ffd5b505050506040513d601f19601f820116820180604052508101906114ff91906123ac565b50600260405180606001604052808481526020018381526020013373ffffffffffffffffffffffffffffffffffffffff16815250908060018154018082558091505060019003905f5260205f2090600302015f909190919091505f820151815f0155602082015181600101556040820151816002015f6101000a81548173ffffffffffffffffffffffffffffffffffffffff021916908373ffffffffffffffffffffffffffffffffffffffff16021790555050507f2c58d170dbedc35aab26d175d5e58b8c64e38e5eb14c80499290dbdbeb7f175660016002805490506115e6919061260c565b8383336040516115f9949392919061266c565b60405180910390a15050565b5f604051905090565b5f80fd5b5f80fd5b5f80fd5b5f80fd5b5f601f19601f8301169050919050565b7f4e487b71000000000000000000000000000000000000000000000000000000005f52604160045260245ffd5b6116648261161e565b810181811067ffffffffffffffff821117156116835761168261162e565b5b80604052505050565b5f611695611605565b90506116a1828261165b565b919050565b5f67ffffffffffffffff8211156116c0576116bf61162e565b5b6116c98261161e565b9050602081019050919050565b828183375f83830152505050565b5f6116f66116f1846116a6565b61168c565b9050828152602081018484840111156117125761171161161a565b5b61171d8482856116d6565b509392505050565b5f82601f83011261173957611738611616565b5b81356117498482602086016116e4565b91505092915050565b5f80604083850312156117685761176761160e565b5b5f83013567ffffffffffffffff81111561178557611784611612565b5b61179185828601611725565b925050602083013567ffffffffffffffff8111156117b2576117b1611612565b5b6117be85828601611725565b9150509250929050565b5f819050919050565b6117da816117c8565b81146117e4575f80fd5b50565b5f813590506117f5816117d1565b92915050565b5f602082840312156118105761180f61160e565b5b5f61181d848285016117e7565b91505092915050565b61182f816117c8565b82525050565b5f73ffffffffffffffffffffffffffffffffffffffff82169050919050565b5f61185e82611835565b9050919050565b61186e81611854565b82525050565b5f6060820190506118875f830186611826565b6118946020830185611826565b6118a16040830184611865565b949350505050565b5f819050919050565b5f6118cc6118c76118c284611835565b6118a9565b611835565b9050919050565b5f6118dd826118b2565b9050919050565b5f6118ee826118d3565b9050919050565b6118fe816118e4565b82525050565b5f6020820190506119175f8301846118f5565b92915050565b5f6020820190506119305f830184611826565b92915050565b61193f81611854565b8114611949575f80fd5b50565b5f8135905061195a81611936565b92915050565b5f602082840312156119755761197461160e565b5b5f6119828482850161194c565b91505092915050565b5f81519050919050565b5f82825260208201905092915050565b5f5b838110156119c25780820151818401526020810190506119a7565b5f8484015250505050565b5f6119d78261198b565b6119e18185611995565b93506119f18185602086016119a5565b6119fa8161161e565b840191505092915050565b5f6020820190508181035f830152611a1d81846119cd565b905092915050565b5f819050919050565b611a3781611a25565b82525050565b5f602082019050611a505f830184611a2e565b92915050565b5f8060408385031215611a6c57611a6b61160e565b5b5f611a79858286016117e7565b9250506020611a8a858286016117e7565b9150509250929050565b7f5573657220616c726561647920726567697374657265640000000000000000005f82015250565b5f611ac8601783611995565b9150611ad382611a94565b602082019050919050565b5f6020820190508181035f830152611af581611abc565b9050919050565b5f81905092915050565b7f636f6e73756d65720000000000000000000000000000000000000000000000005f82015250565b5f611b3a600883611afc565b9150611b4582611b06565b600882019050919050565b5f611b5a82611b2e565b9150819050919050565b5f611b6e8261198b565b611b788185611afc565b9350611b888185602086016119a5565b80840191505092915050565b5f611b9f8284611b64565b915081905092915050565b7f70726f64756365720000000000000000000000000000000000000000000000005f82015250565b5f611bde600883611afc565b9150611be982611baa565b600882019050919050565b5f611bfe82611bd2565b9150819050919050565b7f496e76616c696420726f6c6500000000000000000000000000000000000000005f82015250565b5f611c3c600c83611995565b9150611c4782611c08565b602082019050919050565b5f6020820190508181035f830152611c6981611c30565b9050919050565b7f4e487b71000000000000000000000000000000000000000000000000000000005f52602260045260245ffd5b5f6002820490506001821680611cb457607f821691505b602082108103611cc757611cc6611c70565b5b50919050565b5f819050815f5260205f209050919050565b5f6020601f8301049050919050565b5f82821b905092915050565b5f60088302611d297fffffffffffffffffffffffffffffffffffffffffffffffffffffffffffffffff82611cee565b611d338683611cee565b95508019841693508086168417925050509392505050565b5f611d65611d60611d5b846117c8565b6118a9565b6117c8565b9050919050565b5f819050919050565b611d7e83611d4b565b611d92611d8a82611d6c565b848454611cfa565b825550505050565b5f90565b611da6611d9a565b611db1818484611d75565b505050565b5b81811015611dd457611dc95f82611d9e565b600181019050611db7565b5050565b601f821115611e1957611dea81611ccd565b611df384611cdf565b81016020851015611e02578190505b611e16611e0e85611cdf565b830182611db6565b50505b505050565b5f82821c905092915050565b5f611e395f1984600802611e1e565b1980831691505092915050565b5f611e518383611e2a565b9150826002028217905092915050565b611e6a8261198b565b67ffffffffffffffff811115611e8357611e8261162e565b5b611e8d8254611c9d565b611e98828285611dd8565b5f60209050601f831160018114611ec9575f8415611eb7578287015190505b611ec18582611e46565b865550611f28565b601f198416611ed786611ccd565b5f5b82811015611efe57848901518255600182019150602085019450602081019050611ed9565b86831015611f1b5784890151611f17601f891682611e2a565b8355505b6001600288020188555050505b505050505050565b5f606082019050611f435f830186611865565b8181036020830152611f5581856119cd565b9050611f646040830184611a2e565b949350505050565b7f55736572206e6f742072656769737465726564000000000000000000000000005f82015250565b5f611fa0601383611995565b9150611fab82611f6c565b602082019050919050565b5f6020820190508181035f830152611fcd81611f94565b9050919050565b5f8154611fe081611c9d565b611fea8186611afc565b9450600182165f811461200457600181146120195761204b565b60ff198316865281151582028601935061204b565b61202285611ccd565b5f5b8381101561204357815481890152600182019150602081019050612024565b838801955050505b50505092915050565b5f61205f8284611fd4565b915081905092915050565b7f4f6e6c7920636f6e73756d6572732063616e2073656c6c20746f6b656e7300005f82015250565b5f61209e601e83611995565b91506120a98261206a565b602082019050919050565b5f6020820190508181035f8301526120cb81612092565b9050919050565b7f596f75206d757374207370656369667920616e20616d6f756e7420746f2073655f8201527f6c6c000000000000000000000000000000000000000000000000000000000000602082015250565b5f61212c602283611995565b9150612137826120d2565b604082019050919050565b5f6020820190508181035f83015261215981612120565b9050919050565b5f6020820190506121735f830184611865565b92915050565b5f81519050612187816117d1565b92915050565b5f602082840312156121a2576121a161160e565b5b5f6121af84828501612179565b91505092915050565b7f596f7520646f6e2774206861766520656e6f75676820746f6b656e7320746f205f8201527f73656c6c00000000000000000000000000000000000000000000000000000000602082015250565b5f612212602483611995565b915061221d826121b8565b604082019050919050565b5f6020820190508181035f83015261223f81612206565b9050919050565b7f4e487b71000000000000000000000000000000000000000000000000000000005f52601160045260245ffd5b5f61227d826117c8565b9150612288836117c8565b9250828202612296816117c8565b915082820484148315176122ad576122ac612246565b5b5092915050565b7f436f6e747261637420646f65736e2774206861766520656e6f756768204554485f8201527f20746f2062757920746f6b656e73000000000000000000000000000000000000602082015250565b5f61230e602e83611995565b9150612319826122b4565b604082019050919050565b5f6020820190508181035f83015261233b81612302565b9050919050565b5f6060820190506123555f830186611865565b6123626020830185611865565b61236f6040830184611826565b949350505050565b5f8115159050919050565b61238b81612377565b8114612395575f80fd5b50565b5f815190506123a681612382565b92915050565b5f602082840312156123c1576123c061160e565b5b5f6123ce84828501612398565b91505092915050565b5f6060820190506123ea5f830186611865565b6123f76020830185611826565b6124046040830184611826565b949350505050565b7f4f6e6c7920636f6e73756d6572732063616e2062757920656e657267790000005f82015250565b5f612440601d83611995565b915061244b8261240c565b602082019050919050565b5f6020820190508181035f83015261246d81612434565b9050919050565b7f496e76616c6964206f66666572204944000000000000000000000000000000005f82015250565b5f6124a8601083611995565b91506124b382612474565b602082019050919050565b5f6020820190508181035f8301526124d58161249c565b9050919050565b7f4e487b71000000000000000000000000000000000000000000000000000000005f52603260045260245ffd5b7f596f752063616e206f6e6c7920627579207468652066756c6c20616d6f756e745f82015250565b5f61253d602083611995565b915061254882612509565b602082019050919050565b5f6020820190508181035f83015261256a81612531565b9050919050565b7f4e6f7420656e6f75676820456e65726779546f6b656e7320746f2062757900005f82015250565b5f6125a5601e83611995565b91506125b082612571565b602082019050919050565b5f6020820190508181035f8301526125d281612599565b9050919050565b5f6125e3826117c8565b91506125ee836117c8565b925082820190508082111561260657612605612246565b5b92915050565b5f612616826117c8565b9150612621836117c8565b925082820390508181111561263957612638612246565b5b92915050565b7f4e487b71000000000000000000000000000000000000000000000000000000005f52603160045260245ffd5b5f60808201905061267f5f830187611826565b61268c6020830186611826565b6126996040830185611826565b6126a66060830184611865565b95945050505050565b7f4f6e6c7920636f6e73756d6572732063616e2062757920746f6b656e730000005f82015250565b5f6126e3601d83611995565b91506126ee826126af565b602082019050919050565b5f6020820190508181035f830152612710816126d7565b9050919050565b7f596f75206d7573742073656e642045544820746f2062757920746f6b656e73005f82015250565b5f61274b601f83611995565b915061275682612717565b602082019050919050565b5f6020820190508181035f8301526127788161273f565b9050919050565b7f4e487b71000000000000000000000000000000000000000000000000000000005f52601260045260245ffd5b5f6127b6826117c8565b91506127c1836117c8565b9250826127d1576127d061277f565b5b828204905092915050565b7f496e73756666696369656e74204554482073656e7420666f7220746f6b656e735f82015250565b5f612810602083611995565b915061281b826127dc565b602082019050919050565b5f6020820190508181035f83015261283d81612804565b9050919050565b5f6040820190506128575f830185611865565b6128646020830184611826565b9392505050565b7f4f6e6c792070726f6475636572732063616e206c69737420656e6572677900005f82015250565b5f61289f601e83611995565b91506128aa8261286b565b602082019050919050565b5f6020820190508181035f8301526128cc81612893565b9050919050565b7f4e6f7420656e6f75676820456e65726779546f6b656e7320746f206c697374005f82015250565b5f612907601f83611995565b9150612912826128d3565b602082019050919050565b5f6020820190508181035f830152612934816128fb565b905091905056fea26469706673582212201b73848fedca418604071e351f144d747b5d5eb3c8fe9ee1c4f9c7827530a0cb64736f6c63430008140033608060405234801562000010575f80fd5b50604051620018a8380380620018a883398181016040528101906200003691906200040b565b6040518060400160405280600b81526020017f456e65726779546f6b656e0000000000000000000000000000000000000000008152506040518060400160405280600381526020017f45544b00000000000000000000000000000000000000000000000000000000008152508160039081620000b3919062000696565b508060049081620000c5919062000696565b505050620000da33826200012160201b60201c565b3360055f6101000a81548173ffffffffffffffffffffffffffffffffffffffff021916908373ffffffffffffffffffffffffffffffffffffffff16021790555050620008a6565b5f73ffffffffffffffffffffffffffffffffffffffff168273ffffffffffffffffffffffffffffffffffffffff160362000194575f6040517fec442f050000000000000000000000000000000000000000000000000000000081526004016200018b9190620007bd565b60405180910390fd5b620001a75f8383620001ab60201b60201c565b5050565b5f73ffffffffffffffffffffffffffffffffffffffff168373ffffffffffffffffffffffffffffffffffffffff1603620001ff578060025f828254620001f2919062000805565b92505081905550620002d0565b5f805f8573ffffffffffffffffffffffffffffffffffffffff1673ffffffffffffffffffffffffffffffffffffffff1681526020019081526020015f20549050818110156200028b578381836040517fe450d38c000000000000000000000000000000000000000000000000000000008152600401620002829392919062000850565b60405180910390fd5b8181035f808673ffffffffffffffffffffffffffffffffffffffff1673ffffffffffffffffffffffffffffffffffffffff1681526020019081526020015f2081905550505b5f73ffffffffffffffffffffffffffffffffffffffff168273ffffffffffffffffffffffffffffffffffffffff160362000319578060025f828254039250508190555062000363565b805f808473ffffffffffffffffffffffffffffffffffffffff1673ffffffffffffffffffffffffffffffffffffffff1681526020019081526020015f205f82825401925050819055505b8173ffffffffffffffffffffffffffffffffffffffff168373ffffffffffffffffffffffffffffffffffffffff167fddf252ad1be2c89b69c2b068fc378daa952ba7f163c4a11628f55a4df523b3ef83604051620003c291906200088b565b60405180910390a3505050565b5f80fd5b5f819050919050565b620003e781620003d3565b8114620003f2575f80fd5b50565b5f815190506200040581620003dc565b92915050565b5f60208284031215620004235762000422620003cf565b5b5f6200043284828501620003f5565b91505092915050565b5f81519050919050565b7f4e487b71000000000000000000000000000000000000000000000000000000005f52604160045260245ffd5b7f4e487b71000000000000000000000000000000000000000000000000000000005f52602260045260245ffd5b5f6002820490506001821680620004b757607f821691505b602082108103620004cd57620004cc62000472565b5b50919050565b5f819050815f5260205f209050919050565b5f6020601f8301049050919050565b5f82821b905092915050565b5f60088302620005317fffffffffffffffffffffffffffffffffffffffffffffffffffffffffffffffff82620004f4565b6200053d8683620004f4565b95508019841693508086168417925050509392505050565b5f819050919050565b5f6200057e620005786200057284620003d3565b62000555565b620003d3565b9050919050565b5f819050919050565b62000599836200055e565b620005b1620005a88262000585565b84845462000500565b825550505050565b5f90565b620005c7620005b9565b620005d48184846200058e565b505050565b5b81811015620005fb57620005ef5f82620005bd565b600181019050620005da565b5050565b601f8211156200064a576200061481620004d3565b6200061f84620004e5565b810160208510156200062f578190505b620006476200063e85620004e5565b830182620005d9565b50505b505050565b5f82821c905092915050565b5f6200066c5f19846008026200064f565b1980831691505092915050565b5f6200068683836200065b565b9150826002028217905092915050565b620006a1826200043b565b67ffffffffffffffff811115620006bd57620006bc62000445565b5b620006c982546200049f565b620006d6828285620005ff565b5f60209050601f8311600181146200070c575f8415620006f7578287015190505b62000703858262000679565b86555062000772565b601f1984166200071c86620004d3565b5f5b8281101562000745578489015182556001820191506020850194506020810190506200071e565b8683101562000765578489015162000761601f8916826200065b565b8355505b6001600288020188555050505b505050505050565b5f73ffffffffffffffffffffffffffffffffffffffff82169050919050565b5f620007a5826200077a565b9050919050565b620007b78162000799565b82525050565b5f602082019050620007d25f830184620007ac565b92915050565b7f4e487b71000000000000000000000000000000000000000000000000000000005f52601160045260245ffd5b5f6200081182620003d3565b91506200081e83620003d3565b9250828201905080821115620008395762000838620007d8565b5b92915050565b6200084a81620003d3565b82525050565b5f606082019050620008655f830186620007ac565b6200087460208301856200083f565b6200088360408301846200083f565b949350505050565b5f602082019050620008a05f8301846200083f565b92915050565b610ff480620008b45f395ff3fe608060405234801561000f575f80fd5b50600436106100a7575f3560e01c806340c10f191161006f57806340c10f191461016557806370a08231146101815780638da5cb5b146101b157806395d89b41146101cf578063a9059cbb146101ed578063dd62ed3e1461021d576100a7565b806306fdde03146100ab578063095ea7b3146100c957806318160ddd146100f957806323b872dd14610117578063313ce56714610147575b5f80fd5b6100b361024d565b6040516100c09190610c05565b60405180910390f35b6100e360048036038101906100de9190610cb6565b6102dd565b6040516100f09190610d0e565b60405180910390f35b6101016102ff565b60405161010e9190610d36565b60405180910390f35b610131600480360381019061012c9190610d4f565b610308565b60405161013e9190610d0e565b60405180910390f35b61014f610336565b60405161015c9190610dba565b60405180910390f35b61017f600480360381019061017a9190610cb6565b61033e565b005b61019b60048036038101906101969190610dd3565b6103db565b6040516101a89190610d36565b60405180910390f35b6101b9610420565b6040516101c69190610e0d565b60405180910390f35b6101d7610445565b6040516101e49190610c05565b60405180910390f35b61020760048036038101906102029190610cb6565b6104d5565b6040516102149190610d0e565b60405180910390f35b61023760048036038101906102329190610e26565b6104f7565b6040516102449190610d36565b60405180910390f35b60606003805461025c90610e91565b80601f016020809104026020016040519081016040528092919081815260200182805461028890610e91565b80156102d35780601f106102aa576101008083540402835291602001916102d3565b820191905f5260205f20905b8154815290600101906020018083116102b657829003601f168201915b5050505050905090565b5f806102e7610579565b90506102f4818585610580565b600191505092915050565b5f600254905090565b5f80610312610579565b905061031f858285610592565b61032a858585610624565b60019150509392505050565b5f6012905090565b60055f9054906101000a900473ffffffffffffffffffffffffffffffffffffffff1673ffffffffffffffffffffffffffffffffffffffff163373ffffffffffffffffffffffffffffffffffffffff16146103cd576040517f08c379a00000000000000000000000000000000000000000000000000000000081526004016103c490610f0b565b60405180910390fd5b6103d78282610714565b5050565b5f805f8373ffffffffffffffffffffffffffffffffffffffff1673ffffffffffffffffffffffffffffffffffffffff1681526020019081526020015f20549050919050565b60055f9054906101000a900473ffffffffffffffffffffffffffffffffffffffff1681565b60606004805461045490610e91565b80601f016020809104026020016040519081016040528092919081815260200182805461048090610e91565b80156104cb5780601f106104a2576101008083540402835291602001916104cb565b820191905f5260205f20905b8154815290600101906020018083116104ae57829003601f168201915b5050505050905090565b5f806104df610579565b90506104ec818585610624565b600191505092915050565b5f60015f8473ffffffffffffffffffffffffffffffffffffffff1673ffffffffffffffffffffffffffffffffffffffff1681526020019081526020015f205f8373ffffffffffffffffffffffffffffffffffffffff1673ffffffffffffffffffffffffffffffffffffffff1681526020019081526020015f2054905092915050565b5f33905090565b61058d8383836001610793565b505050565b5f61059d84846104f7565b90507fffffffffffffffffffffffffffffffffffffffffffffffffffffffffffffffff811461061e578181101561060f578281836040517ffb8f41b200000000000000000000000000000000000000000000000000000000815260040161060693929190610f29565b60405180910390fd5b61061d84848484035f610793565b5b50505050565b5f73ffffffffffffffffffffffffffffffffffffffff168373ffffffffffffffffffffffffffffffffffffffff1603610694575f6040517f96c6fd1e00000000000000000000000000000000000000000000000000000000815260040161068b9190610e0d565b60405180910390fd5b5f73ffffffffffffffffffffffffffffffffffffffff168273ffffffffffffffffffffffffffffffffffffffff1603610704575f6040517fec442f050000000000000000000000000000000000000000000000000000000081526004016106fb9190610e0d565b60405180910390fd5b61070f838383610962565b505050565b5f73ffffffffffffffffffffffffffffffffffffffff168273ffffffffffffffffffffffffffffffffffffffff1603610784575f6040517fec442f0500000000000000000000000000000000000000000000000000000000815260040161077b9190610e0d565b60405180910390fd5b61078f5f8383610962565b5050565b5f73ffffffffffffffffffffffffffffffffffffffff168473ffffffffffffffffffffffffffffffffffffffff1603610803575f6040517fe602df050000000000000000000000000000000000000000000000000000000081526004016107fa9190610e0d565b60405180910390fd5b5f73ffffffffffffffffffffffffffffffffffffffff168373ffffffffffffffffffffffffffffffffffffffff1603610873575f6040517f94280d6200000000000000000000000000000000000000000000000000000000815260040161086a9190610e0d565b60405180910390fd5b8160015f8673ffffffffffffffffffffffffffffffffffffffff1673ffffffffffffffffffffffffffffffffffffffff1681526020019081526020015f205f8573ffffffffffffffffffffffffffffffffffffffff1673ffffffffffffffffffffffffffffffffffffffff1681526020019081526020015f2081905550801561095c578273ffffffffffffffffffffffffffffffffffffffff168473ffffffffffffffffffffffffffffffffffffffff167f8c5be1e5ebec7d5bd14f71427d1e84f3dd0314c0f7b2291e5b200ac8c7c3b925846040516109539190610d36565b60405180910390a35b50505050565b5f73ffffffffffffffffffffffffffffffffffffffff168373ffffffffffffffffffffffffffffffffffffffff16036109b2578060025f8282546109a69190610f8b565b92505081905550610a80565b5f805f8573ffffffffffffffffffffffffffffffffffffffff1673ffffffffffffffffffffffffffffffffffffffff1681526020019081526020015f2054905081811015610a3b578381836040517fe450d38c000000000000000000000000000000000000000000000000000000008152600401610a3293929190610f29565b60405180910390fd5b8181035f808673ffffffffffffffffffffffffffffffffffffffff1673ffffffffffffffffffffffffffffffffffffffff1681526020019081526020015f2081905550505b5f73ffffffffffffffffffffffffffffffffffffffff168273ffffffffffffffffffffffffffffffffffffffff1603610ac7578060025f8282540392505081905550610b11565b805f808473ffffffffffffffffffffffffffffffffffffffff1673ffffffffffffffffffffffffffffffffffffffff1681526020019081526020015f205f82825401925050819055505b8173ffffffffffffffffffffffffffffffffffffffff168373ffffffffffffffffffffffffffffffffffffffff167fddf252ad1be2c89b69c2b068fc378daa952ba7f163c4a11628f55a4df523b3ef83604051610b6e9190610d36565b60405180910390a3505050565b5f81519050919050565b5f82825260208201905092915050565b5f5b83811015610bb2578082015181840152602081019050610b97565b5f8484015250505050565b5f601f19601f8301169050919050565b5f610bd782610b7b565b610be18185610b85565b9350610bf1818560208601610b95565b610bfa81610bbd565b840191505092915050565b5f6020820190508181035f830152610c1d8184610bcd565b905092915050565b5f80fd5b5f73ffffffffffffffffffffffffffffffffffffffff82169050919050565b5f610c5282610c29565b9050919050565b610c6281610c48565b8114610c6c575f80fd5b50565b5f81359050610c7d81610c59565b92915050565b5f819050919050565b610c9581610c83565b8114610c9f575f80fd5b50565b5f81359050610cb081610c8c565b92915050565b5f8060408385031215610ccc57610ccb610c25565b5b5f610cd985828601610c6f565b9250506020610cea85828601610ca2565b9150509250929050565b5f8115159050919050565b610d0881610cf4565b82525050565b5f602082019050610d215f830184610cff565b92915050565b610d3081610c83565b82525050565b5f602082019050610d495f830184610d27565b92915050565b5f805f60608486031215610d6657610d65610c25565b5b5f610d7386828701610c6f565b9350506020610d8486828701610c6f565b9250506040610d9586828701610ca2565b9150509250925092565b5f60ff82169050919050565b610db481610d9f565b82525050565b5f602082019050610dcd5f830184610dab565b92915050565b5f60208284031215610de857610de7610c25565b5b5f610df584828501610c6f565b91505092915050565b610e0781610c48565b82525050565b5f602082019050610e205f830184610dfe565b92915050565b5f8060408385031215610e3c57610e3b610c25565b5b5f610e4985828601610c6f565b9250506020610e5a85828601610c6f565b9150509250929050565b7f4e487b71000000000000000000000000000000000000000000000000000000005f52602260045260245ffd5b5f6002820490506001821680610ea857607f821691505b602082108103610ebb57610eba610e64565b5b50919050565b7f4f6e6c79206f776e65722063616e206d696e7420746f6b656e730000000000005f82015250565b5f610ef5601a83610b85565b9150610f0082610ec1565b602082019050919050565b5f6020820190508181035f830152610f2281610ee9565b9050919050565b5f606082019050610f3c5f830186610dfe565b610f496020830185610d27565b610f566040830184610d27565b949350505050565b7f4e487b71000000000000000000000000000000000000000000000000000000005f52601160045260245ffd5b5f610f9582610c83565b9150610fa083610c83565b9250828201905080821115610fb857610fb7610f5e565b5b9291505056fea2646970667358221220f57942000743c099bc876030d0eae35216f36bea4ce9e7206623c0217f15b7f264736f6c63430008140033",
  "immutableReferences": {},
  "source": "// SPDX-License-Identifier: MIT\r\npragma solidity ^0.8.0;\r\n\r\n// Import ERC-20 contract from OpenZeppelin\r\nimport \"@openzeppelin/contracts/token/ERC20/ERC20.sol\";\r\n\r\n// EnergyToken contract - represents tokenized energy (ERC-20)\r\ncontract EnergyToken is ERC20 {\r\n    address public owner;\r\n\r\n    // Constructor for the EnergyToken\r\n    constructor(uint256 initialSupply) ERC20(\"EnergyToken\", \"ETK\") {\r\n        _mint(msg.sender, initialSupply); // Mint initial supply to the contract owner\r\n        owner = msg.sender; // Set the contract deployer as the owner\r\n    }\r\n\r\n    // Function to mint tokens, restricted to the owner\r\n    function mint(address to, uint256 amount) public {\r\n        require(msg.sender == owner, \"Only owner can mint tokens\");\r\n        _mint(to, amount);\r\n    }\r\n}\r\n\r\n// EnergyMarket contract - decentralized marketplace for energy trading\r\ncontract EnergyMarket {\r\n    EnergyToken public energyToken; // EnergyToken instance\r\n    uint256 public tokenPrice = 1 ether; // Price of 1 EnergyToken in ETH (modifiable)\r\n\r\n    // Struct for an energy offer (offered by a producer)\r\n    struct EnergyOffer {\r\n        uint256 energyAmount; // Amount of energy (in kWh)\r\n        uint256 pricePerUnit; // Price per unit of energy (per kWh)\r\n        address producer;     // Address of the producer\r\n    }\r\n\r\n    // Array to store energy offers\r\n    EnergyOffer[] public energyOffers;\r\n\r\n    // Mapping of addresses to energy consumption balances (tracking purchased energy)\r\n    mapping(address => uint256) public consumerEnergyBalance;\r\n\r\n    // Mapping of user addresses to hashed SSNs for identity verification\r\n    mapping(address => bytes32) public userHashes;\r\n\r\n    // Mapping to track roles (consumer/producer)\r\n    mapping(address => string) public roles;\r\n\r\n    // Events for transparency\r\n    event EnergyOffered(uint256 offerId, uint256 energyAmount, uint256 pricePerUnit, address producer);\r\n    event EnergyPurchased(uint256 offerId, uint256 energyAmount, uint256 pricePerUnit, address consumer);\r\n    event TokensPurchased(address buyer, uint256 amount, uint256 ethPaid);\r\n    event TokensSold(address seller, uint256 amount, uint256 ethReceived);\r\n    event UserRegistered(address user, string role, bytes32 ssnHash);\r\n\r\n    // Constructor to initialize EnergyToken\r\n    constructor(uint256 initialSupply) {\r\n        energyToken = new EnergyToken(initialSupply); // Deploy the EnergyToken with initial supply\r\n    }\r\n\r\n    // Registration function to link users to their SSN hash\r\n    function registerUser(string memory ssn, string memory role) public {\r\n        require(userHashes[msg.sender] == 0, \"User already registered\");\r\n        require(\r\n            keccak256(abi.encodePacked(role)) == keccak256(abi.encodePacked(\"consumer\")) ||\r\n            keccak256(abi.encodePacked(role)) == keccak256(abi.encodePacked(\"producer\")),\r\n            \"Invalid role\"\r\n        );\r\n\r\n        // Store the hashed SSN and assign the role\r\n        userHashes[msg.sender] = keccak256(abi.encodePacked(ssn));\r\n        roles[msg.sender] = role;\r\n\r\n        emit UserRegistered(msg.sender, role, userHashes[msg.sender]);\r\n    }\r\n\r\n    // Function for consumers to buy EnergyTokens using ETH\r\n    function buyTokens() public payable {\r\n        require(userHashes[msg.sender] != 0, \"User not registered\");\r\n        require(\r\n            keccak256(abi.encodePacked(roles[msg.sender])) == keccak256(abi.encodePacked(\"consumer\")),\r\n            \"Only consumers can buy tokens\"\r\n        );\r\n\r\n        require(msg.value > 0, \"You must send ETH to buy tokens\");\r\n\r\n        uint256 tokensToMint = msg.value / tokenPrice; // Calculate the number of tokens to mint\r\n        require(tokensToMint > 0, \"Insufficient ETH sent for tokens\");\r\n\r\n        energyToken.mint(msg.sender, tokensToMint); // Mint tokens to the buyer\r\n\r\n        emit TokensPurchased(msg.sender, tokensToMint, msg.value); // Emit event\r\n    }\r\n\r\n    // Function for consumers to sell EnergyTokens back to the contract\r\n    function sellTokens(uint256 tokenAmount) public {\r\n        require(userHashes[msg.sender] != 0, \"User not registered\");\r\n        require(\r\n            keccak256(abi.encodePacked(roles[msg.sender])) == keccak256(abi.encodePacked(\"consumer\")),\r\n            \"Only consumers can sell tokens\"\r\n        );\r\n\r\n        require(tokenAmount > 0, \"You must specify an amount to sell\");\r\n        require(energyToken.balanceOf(msg.sender) >= tokenAmount, \"You don't have enough tokens to sell\");\r\n\r\n        uint256 ethAmount = tokenAmount * tokenPrice; // Calculate the ETH equivalent\r\n        require(address(this).balance >= ethAmount, \"Contract doesn't have enough ETH to buy tokens\");\r\n\r\n        energyToken.transferFrom(msg.sender, address(this), tokenAmount); // Transfer tokens back to the contract\r\n        payable(msg.sender).transfer(ethAmount); // Send ETH to the seller\r\n\r\n        emit TokensSold(msg.sender, tokenAmount, ethAmount); // Emit event\r\n    }\r\n\r\n    // Function for producers to list their energy for sale\r\n    function listEnergyForSale(uint256 energyAmount, uint256 pricePerUnit) public {\r\n        require(userHashes[msg.sender] != 0, \"User not registered\");\r\n        require(\r\n            keccak256(abi.encodePacked(roles[msg.sender])) == keccak256(abi.encodePacked(\"producer\")),\r\n            \"Only producers can list energy\"\r\n        );\r\n\r\n        require(energyToken.balanceOf(msg.sender) >= energyAmount, \"Not enough EnergyTokens to list\");\r\n\r\n        energyToken.transferFrom(msg.sender, address(this), energyAmount);\r\n\r\n        energyOffers.push(EnergyOffer({\r\n            energyAmount: energyAmount,\r\n            pricePerUnit: pricePerUnit,\r\n            producer: msg.sender\r\n        }));\r\n\r\n        emit EnergyOffered(energyOffers.length - 1, energyAmount, pricePerUnit, msg.sender);\r\n    }\r\n\r\n    function buyEnergy(uint256 offerId, uint256 energyAmount) public {\r\n        require(userHashes[msg.sender] != 0, \"User not registered\");\r\n        require(\r\n            keccak256(abi.encodePacked(roles[msg.sender])) == keccak256(abi.encodePacked(\"consumer\")),\r\n            \"Only consumers can buy energy\"\r\n        );\r\n\r\n        require(offerId < energyOffers.length, \"Invalid offer ID\");\r\n        EnergyOffer storage offer = energyOffers[offerId];\r\n\r\n        // Ensure the consumer is buying the full offer amount\r\n        require(energyAmount == offer.energyAmount, \"You can only buy the full amount\");\r\n\r\n        uint256 totalPrice = energyAmount * offer.pricePerUnit;\r\n        require(energyToken.balanceOf(msg.sender) >= totalPrice, \"Not enough EnergyTokens to buy\");\r\n\r\n        // Transfer tokens and adjust balances\r\n        energyToken.transferFrom(msg.sender, offer.producer, totalPrice);\r\n        consumerEnergyBalance[msg.sender] += energyAmount;\r\n\r\n        // Remove the offer from the list as it's fully purchased\r\n        energyOffers[offerId] = energyOffers[energyOffers.length - 1]; // Swap with the last offer\r\n        energyOffers.pop(); // Remove the last offer\r\n\r\n        emit EnergyPurchased(offerId, energyAmount, offer.pricePerUnit, msg.sender);\r\n    }\r\n\r\n}\r\n",
  "sourcePath": "C:\\Users\\Aida\\quorum-examples\\energy-trading\\energy-market\\contracts\\our_contract_test.sol",
  "compiler": {
    "name": "solc",
    "version": "0.8.20+commit.a1b79de6.Emscripten.clang"
  },
  "schemaVersion": "3.4.16",
  "updatedAt": "2024-11-20T19:00:17.405Z",
  "devdoc": {
    "kind": "dev",
    "methods": {},
    "version": 1
  },
  "userdoc": {
    "kind": "user",
    "methods": {},
    "version": 1
  }
}